:0B0238003031323334353637383900AE
:0C021F00E4FFE4FE0EBE21FC0FBF0AF657
:01022B0022B0
:02020000AD0748
:0D020200E4FCECC39D500612021F0C80F5B9
:01020F0022CC
:1001EA00C2A0D2A1D2A200000000A2879201C2A29C
:0501FA00A201E433FF47
:0101FF0022DD
:07016A007F051202007F383F
:10017100AE071201EAEF640160F8C2A0C2A1C2A2F7
:1001810000008E8000000000D2A200000000C2A288
:01019100224B
:07000300EF4480FF020171D0
:10019200AE071201EAEF640160F8D2A0C2A1C2A2C6
:0F01A2008E8000000000D2A200000000C2A22246
:10013C007F0F12016C12016A12016A7F0512020014
:10014C007F0C1201717F051202007F061201717F74
:0E015C00051202007F011201717F05020200F0
:0F021000E4FF1200037F761201927F3D020192FC
:04000E00AB07AA068C
:100012007C037DE812008F8F0B7C037DE8AF03AE7B
:100022000212008F7E007F64CFCDCFCECCCE1200E5
:100032008F8F0C7C007D64AF03AE0212008F7E00B6
:100042007F0ACFCDCFCECCCE12008F8F0DAE02AFB6
:10005200037C007D0A12008F7F02120003E50B90E1
:10006200023893FF120192E50C93FF120192E50D03
:0B00720093FF120192ED93FF02019238
:1001B1007F061200037F721201927F2F1201927F3C
:0E01C1006D1201927F691201927F6E0201920F
:1000E40012013C758951758C4B758AFDD2AFD2A92A
:1000F400D28CE4F508120210E4FFFE12000E120185
:10010400B1D28EE4F58DF58BC2003000FDAF8DEFDA
:10011400FEAD8B7C00E42DFFEC3EFE7D3C12007DA9
:10012400EEC4F854F0C868F509EFC4540F48F50A52
:08013400FFAE0912000E80C9A4
:03000B000201CF20
:1001CF00C0E0C0D00508E508B41405D200750800DA
:0B01DF00758C4B758AFDD0D0D0E0324B
:0300000002022CCD
:0C022C00787FE4F6D8FD7581200200E424
:10007D00EF8DF0A4A8F0CF8CF0A428CE8DF0A42E97
:02008D00FE2251
:10008F00BC000BBE0029EF8DF084FFADF022E4CC55
:10009F00F875F008EF2FFFEE33FEEC33FCEE9DEC1E
:1000AF00984005FCEE9DFE0FD5F0E9E4CEFD22ED64
:1000BF00F8F5F0EE8420D21CFEADF075F008EF2FAE
:1000CF00FFED33FD4007985006D5F0F222C398FD9F
:0500DF000FD5F0EA223C
:00000001FF
